:1000000000000420B5020000DD020000DF02000055
:10001000E1020000E3020000E50200000000000031
:10002000000000000000000000000000810500004A
:10003000E902000000000000A1050000ED02000040
:1000400085280000EF020000EF020000EF02000030
:10005000EF020000EF020000892C0000EF02000018
:10006000EF020000EF020000EF020000EF020000CC
:10007000EF020000EF020000EF020000EF020000BC
:10008000EF020000A9060000EF020000EF020000EE
:10009000EF020000EF020000EF020000EF0200009C
:1000A000EF020000EF020000EF020000EF0200008C
:1000B000EF020000EF02000000000000000000005E
:1000C000EF020000EF020000EF020000EF0200006C
:1000D000EF020000EF020000EF020000EF0200005C
:1000E000EF020000EF020000EF020000000000003D
:1000F00000000000EF02000000000000EF0200001E
:1001000000000000000000000000000000000000EF
:1001100000000000000000000000000000000000DF
:1001200000000000000000000000000000000000CF
:1001300000000000000000000000000000000000BF
:1001400000000000000000000000000000000000AF
:10015000000000000000000000000000000000009F
:10016000000000000000000000000000000000008F
:10017000000000000000000000000000000000007F
:10018000000000000000000000000000000000006F
:10019000000000000000000000000000000000005F
:1001A000000000000000000000000000000000004F
:1001B000000000000000000000000000000000003F
:1001C000000000000000000000000000000000002F
:1001D000000000000000000000000000000000001F
:1001E000000000000000000000000000000000000F
:1001F00000000000000000000000000000000000FF
:1002000010B5054C237833B9044B13B10448AFF350
:1002100000800123237010BD70000020000000004A
:10022000743A000008B5034B1BB103490348AFF310
:10023000008008BD0000000074000020743A000037
:10024000154B002B08BF134B9D46A3F5803A0021A8
:100250008B460F461348144A121A03F0C6FB0F4B85
:10026000002B00D098470E4B002B00D09847002061
:10027000002104000D000D48002802D00C48AFF307
:10028000008003F083FB2000290003F071FA03F0E3
:1002900069FB00BF0000080000000420000000000F
:1002A0000000000070000020381300200000000053
:1002B000000000000649074A074B9B1A03DD043B78
:1002C000C858D050FBDC03F06BFAFFF7B9FF000011
:1002D000803A00000000002070000020FEE7FEE7EA
:1002E000FEE7FEE7FEE7FEE7FEE7FEE7FEE7FEE7E6
:1002F000074B1B5C1F2B8ABF064A4FF0A04203F03E
:100300001F03D2F80405D840C04300F00100704735
:10031000183A000000030050074B1B5C1F2B86BFE0
:1003200003F01F0305494FF0A041012202FA03F335
:10033000C1F80C35704700BF183A000000030050A8
:10034000074B1B5C1F2B86BF03F01F0305494FF0B3
:10035000A041012202FA03F3C1F80835704700BF3B
:10036000183A0000000300504FF0A04310B44FF4BF
:1003700080404FF400544FF400414FF48032C3F8F2
:100380000845C3F80805C3F80815C3F808255DF843
:10039000044B70474FF0A04310B44FF480404FF42B
:1003A00000544FF400414FF48032C3F80C45C3F8B9
:1003B0000C05C3F80C15C3F80C255DF8044B704709
:1003C0000A4B195C1F298ABF09484FF0A04001F071
:1003D0001F01D0F8043501228A4022EA03011340AC
:1003E000C0F80815C0F80C35704700BF183A000077
:1003F000000300500B2809D00C2809D0182809D078
:1004000019280CBF03204FF0FF30704700207047C1
:100410000120704702207047C20730B40ED4830712
:100420000AD54FF0A0430C22C3F82C27C3F830277D
:10043000C3F86027C3F8642730BC70474FF0A0436F
:100440000322C3F834274FF40055C3F838274FF47C
:100450008044C3F83C274FF40041C3F840274FF4D1
:100460008032C3F80855C3F80845C3F80815C3F827
:100470000825D4E738B5430704461CBF20F007041D
:10048000083401F045F80E4A136873B10D4A156837
:1004900040F6F7712C448C420CD8A5420AD21D4478
:1004A000146001F0E1F8284638BD074B23F007033C
:1004B0001360EBE7002501F0D7F8284638BD00BFF0
:1004C0008C0000209010002098000020704700BF92
:1004D00000F108034FF0FF310022816002604360A9
:1004E000C0E90333704700BF00230361704700BFBA
:1004F00043684B609A688A609A68516099600861A5
:10050000036801330360704730B40D686B1C11D071
:1005100000F1080200E01A4653681C68AC42FAD9A0
:100520004B6099608A605160086103680133036021
:1005300030BC704702695368F2E700BFD0E901217F
:1005400003699160D0E9011251605A68824204BF88
:1005500082685A60002202611A68013A1A601868BB
:10056000704700BF0548006880F3088862B661B62E
:10057000BFF34F8FBFF36F8F00DF00BF000000009D
:10058000064B19680868B0E8F04F80F30988BFF39C
:100590006F8F4FF0000080F3118870479810002093
:1005A000EFF30980BFF36F8F144B1A681EF0100F22
:1005B00008BF20ED108A20E9F04F10604DF8043D8F
:1005C0004FF0400080F31188BFF34F8FBFF36F8F60
:1005D00001F0A4F94FF0000080F3118808BC1968FD
:1005E0000868B0E8F04F1EF0100F08BFB0EC108A9A
:1005F00080F30988BFF36F8F704700BF9810002009
:10060000402383F31188FEE730B46FF002034FF00C
:100610008075074C40F8081C40F8202C40F8045C1A
:1006200040F80C4C40F8243C30BC4438704700BFC4
:10063000010600000F4C08B5E02384F8223000F0DA
:1006400073F80D4B0D4A00211960D4F8883043F43B
:100650007003C4F88830536843F040435360236903
:1006600043F010032361FFF77DFF402383F31188DC
:10067000FEE700BF00ED00E09410002030EF00E046
:10068000402383F31188024A1368013313607047D3
:1006900094100020034A1368013B13600BB983F3E5
:1006A000118870479410002070B51B4B00251D6009
:1006B00082B01B680193019BEFF31186402383F303
:1006C0001188164A164BD2F804451D601B6800932A
:1006D000009B00F025FF241A24F07F44012C0DD844
:1006E00044B100F031FF054625B10E4B4FF080526A
:1006F0005A6040BF86F3118802B070BD01F08AFADB
:100700000228EED1013C00F01FFF013C631C45EACA
:100710000005F8D1E8E700BF40110140001001409A
:100720000011014000ED00E038B5002002F044F86F
:100730000A4B0B480B4901221F24C3F80845022528
:10074000C3F80423E02402604FF400301A60C3F8B9
:10075000445381F81143086038BD00BF00100140C8
:100760000810014000E100E0F0B5074685B072B620
:10077000284CD4F8046501F033FA002842D0264D05
:10078000264BBD4228BF3D4672190121C4F808130B
:1007900022F07F420021C4F8402519601B680193B4
:1007A0004FF48033019AC4F80433BFF34F8F47B13D
:1007B0001B4A20BFD2F80041D2F8041154EA0103C9
:1007C000F7D0144A1548174B4FF48031C2F808137C
:1007D0000021016000680390039819601B68029370
:1007E00001230299C2F80433D2F804350C4A9B1B4A
:1007F00023F07F40A8424FF4003328BF2846C2F8B8
:10080000803110B962B605B0F0BD00F095FE62B659
:1008100005B0F0BD00100140FDFFFF004011014098
:1008200000E100E00011014070B506460D4651B1EF
:1008300000FB01F04830FFF71DFE044658B300F1FD
:100840004803036005E04820FFF714FE044610B398
:100850002460C4E90F65FFF713FFD4E90F13226882
:10086000A26001FB03F1CB1A134400200A44FF21CC
:10087000A063E36084F84410626084F8451004F1DA
:100880001000FFF725FE04F12400FFF721FEFFF71B
:1008900001FF204670BD0024204670BD2DE9F04FB9
:1008A000044685B01D4601928846FFF7E9FEA26B1B
:1008B000E36BA84F4FF000099A424E46C0F08B8080
:1008C000022D00F006810198002800F03081B9F176
:1008D000000F00F09580FFF7DDFE00F019FEFFF736
:1008E000CFFE94F84430FF2B08BF84F8446094F89E
:1008F0004530FF2B08BF84F84560FFF7CBFE01A908
:1009000002A801F02FF9002840F01881FFF7B8FE87
:10091000A26BE36B9A4277D0FFF7BCFEFFF7B0FE05
:1009200094F845304FFA83FABAF1000F1ADD636A82
:10093000C3B104F1240907E00AF1FF33DBB24FFA37
:1009400083FA7BB1636A6BB1484601F0B1F80028C5
:10095000F2D001F03FF90AF1FF33DBB24FFA83FA2C
:10096000002BEFD1FF2384F84530FFF793FEFFF70C
:1009700087FE94F844304FFA83FABAF1000F1ADD7B
:100980002369C3B104F1100907E00AF1FF33DBB2B8
:100990004FFA83FA7BB123696BB1484601F088F8BE
:1009A0000028F2D001F016F90AF1FF33DBB24FFA5A
:1009B00083FA002BEFD1FF2384F84430FFF76AFE5F
:1009C00000F052FEFFF75CFEA26BE36B9A424FF021
:1009D0000109BFF475AF226CA66B002A40F0FC80C1
:1009E00025680136002D00F01881A663636A002B8C
:1009F00040F08C80FFF74EFE012005B0BDE8F08F7F
:100A000002A801F0A3F866E704F11009FFF742FE1F
:100A10004846019900F0AEFFFFF732FE94F845A07A
:100A20004FFA8AFABAF1000F1CDD636AD3B104F100
:100A3000240B08E00AF1FF3A5FFA8AF34FFA83FACF
:100A400083B1636A73B1584601F032F80028F1D0DF
:100A50000AF1FF3A01F0BEF85FFA8AF34FFA83FA1F
:100A6000002BEED1FF2384F84530FFF713FEFFF78C
:100A700007FE94F844304FFA83FABAF1000F06DC0F
:100A800015E00AF1FF33DBB24FFA83FA7BB1236939
:100A90006BB1484601F00CF80028F2D001F09AF84A
:100AA0000AF1FF33DBB24FFA83FA002BEFD1FF23B9
:100AB00084F84430FFF7EEFD00F0D6FD002881D128
:100AC0004FF080537B6040BFBFF34F8FBFF36F8FFA
:100AD00078E7226CA66B002A82D04146E06802F0DB
:100AE00079FF236CE26821685B421A448A42E26023
:100AF00080F0898062681344E360022D00F08380F7
:100B00000136A663636A002B3FF474AF04F124003E
:100B100000F0CEFF00283FF46DAF0E4B4FF0805237
:100B20005A6040BFBFF34F8FBFF36F8F62E70090F3
:100B3000FFF7B0FD009805B0BDE8F08FFFF7A0FD0E
:100B400094F845506DB2002D18DD636AB3B104F11D
:100B5000240607E000ED00E0013DEBB25DB26BB1B1
:100B6000636A5BB1304600F0A3FF0028F4D0013D7A
:100B700001F030F8EBB25DB2002BF1D1FF2384F825
:100B80004530FFF787FDFFF77BFD94F844506DB2C9
:100B9000002D16DD2369A3B104F1100605E0013D27
:100BA000EBB25DB26BB123695BB1304600F080FF00
:100BB0000028F4D0013D01F00DF8EBB25DB2002B3E
:100BC000F1D1FF2384F84430FFF764FD00F04CFDC1
:100BD000002005B0BDE8F08F41465DBBA06802F083
:100BE000F9FEA368216C62680B44934206F101068A
:100BF000A360FFF4FAAEA663636A2268A260002BCA
:100C00003FF4F8AE82E7002E7FF4EFAE0123A3633A
:100C1000636A002B3FF4EEAE78E7606801F00AF8F3
:100C2000A663636A6560002B7FF470AF00287FF4D1
:100C300074AFDFE6E06802F0CDFE236CE268216865
:100C40005B421A448A42E260BFF457AF52E700BFEA
:100C50002DE9F0418C4682B004461746EFF3118629
:100C6000402282F31188806BE26B904221D3022BE9
:100C700005D0002086F3118802B0BDE8F08194F819
:100C80004550226CD4F838806DB252BB236808F10D
:100C90000108002B4FD06B1CC4F8388037D00135C9
:100CA0006DB284F84550012086F3118802B0BDE88A
:100CB000F08194F84550226CD4F838806DB2002A47
:100CC000E4D073B9A06802F085FEA368216C626865
:100CD0000B44934208F10108A360DCD32368A360AE
:100CE000D9E76146E068019302F074FE206CE26887
:100CF0002168019B404202448A42E26002D262685B
:100D00001044E060022B10D008F10108C3E7636AC9
:100D1000002BC8D004F1240000F0CAFE0028C2D085
:100D2000002FC0D001203860A4E7B8F1000F08BF41
:100D30004FF00108AFE76068019300F07BFF019B73
:100D40006360A8E72DE9F047044684B08846019225
:100D5000FFF796FCD4F83890B9F1000F40F093807B
:100D6000019B002B00F00A8102A800F0EFFEB34FB8
:100D70004E4604F12405FFF78DFC00F0C9FBFFF798
:100D80007FFC94F84430FF2B08BF84F8446094F84B
:100D90004530FF2B08BF84F84560FFF77BFC01A9B5
:100DA00002A800F0DFFE002840F08780FFF768FC13
:100DB000A36B002B40F0E880FFF76CFC01992846FC
:100DC00000F0D8FDFFF75CFC94F845304FFA83F94A
:100DD000B9F1000F06DC15E009F1FF33DBB24FFA81
:100DE00083F97BB1636A6BB1284600F061FE00288D
:100DF000F2D000F0EFFE09F1FF33DBB24FFA83F9D6
:100E0000002BEFD1FF2384F84530FFF743FCFFF7B9
:100E100037FC94F844304FFA83FABAF1000F1ADD28
:100E20002369C3B104F1100907E00AF1FF33DBB213
:100E30004FFA83FA7BB123696BB1484600F038FE64
:100E40000028F2D000F0C6FE0AF1FF33DBB24FFA01
:100E500083FA002BEFD1FF2384F84430FFF71AFC0C
:100E600000F002FC00287ED14FF080537B6040BF31
:100E7000BFF34F8FBFF36F8FFFF702FCD4F83890AA
:100E8000B9F1000F76D0226C52B1E1686368114469
:100E90009942E16024BF2168E160404602F09AFD7A
:100EA00009F1FF33A3632369002B40F0C980FFF7EA
:100EB000F1FB012004B0BDE8F087FFF7E1FB94F8F7
:100EC00045304FFA83F9B9F1000F06DC15E009F15E
:100ED000FF33DBB24FFA83F97BB1636A6BB128460B
:100EE00000F0E6FD0028F2D000F074FE09F1FF33B7
:100EF000DBB24FFA83F9002BEFD1FF2384F84530A2
:100F0000FFF7C8FBFFF7BCFB94F844304FFA83FAB5
:100F1000BAF1000F1ADD2369C3B104F1100907E02B
:100F20000AF1FF33DBB24FFA83FA7BB123696BB16D
:100F3000484600F0BDFD0028F2D000F04BFE0AF15B
:100F4000FF33DBB24FFA83FA002BEFD1FF2384F893
:100F50004430FFF79FFB00F087FBFFF791FBA36B8B
:100F600063B1FFF797FBFFF78BFBD4F83890B9F12B
:100F7000000F88D1019B002B7FF4FDAEFFF78AFBA9
:100F8000002004B0BDE8F087FFF784FBFFF778FB93
:100F900094F845304FFA83F9B9F1000F06DC15E0FB
:100FA00009F1FF33DBB24FFA83F97BB1636A6BB1AE
:100FB000284600F07DFD0028F2D000F00BFE09F17C
:100FC000FF33DBB24FFA83F9002BEFD1FF2384F814
:100FD0004530FFF75FFBFFF753FB94F844304FFABF
:100FE00083FABAF1000F1ADD2369C3B104F11009C5
:100FF00007E00AF1FF33DBB24FFA83FA7BB12369D2
:101000006BB1484600F054FD0028F2D000F0E2FD3C
:101010000AF1FF33DBB24FFA83FA002BEFD1FF2343
:1010200084F84430FFF736FB00F01EFBFFF728FB87
:10103000D4F83890B9F1000F9CD024E700ED00E01F
:1010400004F1100000F034FD00283FF430AF054BF0
:101050004FF080525A6040BFBFF34F8FBFF36F8F86
:1010600025E700BF00ED00E0074B1A681AB19A6847
:1010700002B17047012210B403EBC20443F83210EE
:1010800060605DF8044B70471413002070B505468E
:101090000C461646FFF7F4FA95F84430FF2B04BFD0
:1010A000002385F8443095F84530FF2B04BF00231A
:1010B00085F84530FFF7EEFAAB6B2BB93246214687
:1010C00005F1240000F09EFCFFF7DAFA95F84540A0
:1010D00064B2002C16DD6B6AA3B105F1240605E0AD
:1010E000013CE3B25CB26BB16B6A5BB1304600F0BD
:1010F000DFFC0028F4D0013C00F06CFDE3B25CB2F0
:10110000002BF1D1FF2385F84530FFF7C3FAFFF735
:10111000B7FA95F8444064B2002C16DD2B69A3B1F0
:1011200005F1100605E0013CE3B25CB26BB12B693E
:101130005BB1304600F0BCFC0028F4D0013C00F06C
:1011400049FDE3B25CB2002BF1D1FF2385F84430B6
:10115000BDE87040FFF79EBA2DE9F84F9600804633
:1011600030460D4699460B9FFFF784F9002800F0A2
:10117000C38082464820FFF77DF90446002800F02E
:1011800092803246C0F830A0A521504602F02DFCD6
:101190002A78236B84F83420043E2A781E4426F0F3
:1011A000070662B16B7884F835306B783BB1AB7869
:1011B00084F83630AB7813B1EB7884F837300A9D79
:1011C000022D28BF02254FF0000B04F1040AE5624E
:1011D000A563504684F837B0C4F83CB0FFF784F9F3
:1011E000C5F1030504F11800FFF77EF9C4F840B01B
:1011F000A561246184F844B064624A4641463046A1
:10120000FFF702FA206007B13C60FFF739FA3C4A69
:101210003C4F1368013313603B68002B3BD0DFF871
:101220001881E36AD8F800207AB3374ADFF80CC196
:101230001668DCF800E0354801252E44166005FAF2
:1012400003F203EB830342EA0E0200EB83005146F4
:10125000CCF80020FFF74CF9FFF71CFAD8F8003063
:1012600083B13A68E36AD26A9A420BD2284B4FF0B4
:1012700080525A6040BFBFF34F8FBFF36F8F284635
:10128000BDE8F88F2846BDE8F88F3A68D26A9A42DE
:1012900098BF3C60C9E73C601368012B0AD0E36A41
:1012A000DFF89480C1E75046FFF710F94FF0FF30A8
:1012B000BDE8F88F1548174E174DDFF87C80FFF713
:1012C00007F91648FFF704F91548FFF701F930460A
:1012D000FFF7FEF82846FFF7FBF81248FFF7F8F88B
:1012E0001148FFF7F5F81148FFF7F2F8104B114AD3
:1012F00016601D60E36A98E74FF0FF30C3E700BF58
:10130000E010002098100020F0100020A410002011
:1013100000ED00E0F81000200C110020B8100020B3
:10132000CC1000202C110020581100204411002066
:10133000A01000209C10002040110020F41000207C
:101340002DE9F843F020FFF795F800286CD005460A
:101350004820FFF78FF80446002800F08580F0222F
:10136000A5210563284602F040FB206B534B6363C5
:101370000025271D00F1EC06E5623846C4E90E554C
:10138000FFF7B2F804F11800FFF7AEF826F00706F1
:1013900003232A4630462564A3614949246184F821
:1013A00044506462FFF730F9464B20601C60FFF741
:1013B00067F9454A454E1368013313603368002BC3
:1013C0004AD0DFF84081E36AD8F8002072B3404A7F
:1013D000DFF834C11568DCF800E03E4801351560DF
:1013E00001229A4003EB830342EA0E0200EB8300E2
:1013F0003946CCF80020FFF77BF8FFF74BF9D8F817
:1014000000306BB13268E36AD26A9A4208D2324B3A
:101410004FF080525A6040BFBFF34F8FBFF36F8FC2
:1014200000F0B8FD012807D0BDE8F8833268D26A21
:101430009A4298BF3460CAE7402383F31188274B50
:1014400027494FF0FF3400220C60C8F800001A60F2
:10145000BDE8F843FFF7EEB834601368012B08D0FD
:10146000E36ADFF8A080B2E72846BDE8F843FFF75B
:101470002DB81848DFF894901A4DDFF88880FFF7F0
:1014800027F81948FFF724F81848FFF721F84846CD
:10149000FFF71EF82846FFF71BF81548FFF718F866
:1014A0001448FFF715F81448FFF712F8134B144AC5
:1014B000C2F800901D60E36A89E700BF49444C0010
:1014C0001D18000020110020E010002098100020BE
:1014D000F0100020A410002000ED00E06C110020AE
:1014E000241100200C110020B8100020CC10002086
:1014F0002C1100205811002044110020A0100020C1
:101500009C10002040110020F4100020F810002052
:10151000024A136801331360704700BFEC100020CB
:10152000014B1868704700BF6C110020014B186810
:10153000704700BF6C110020024A13681844106005
:10154000704700BF6C1100202DE9F04F3B4B1B682A
:1015500083B0002B43D13A4B1F6801371F60002F27
:101560004BD0384B01931B68BB423CD8364EDFF85A
:10157000EC80DFF8ECA0DFF8EC90002526E0336883
:10158000DB68DC68636804F1040B9F42584652D361
:10159000FEF7D4FFA36A04F118000BB1FEF7CEFFEB
:1015A000E06AD8F800200123834000EB8000134359
:1015B00059460AEB8000C8F80030FEF799FFD9F8C9
:1015C0000030E26ADB6A9A4228BF012533681B6853
:1015D000002BD4D1019A4FF0FF33136004E01B4A73
:1015E0001368013313600025194B1B68002B0CBFD7
:1015F0002846012003B0BDE8F08F134E154B31682B
:10160000154A186830601960136801331360336835
:101610001B683BB90B4B01931A464FF0FF33136025
:101620001346A0E73368074ADB680192DB685B6812
:101630001360134697E7019A1360D5E7EC1000207A
:101640006C110020241100209C100020E8100020C4
:1016500070110020A010002028110020F41000209C
:10166000A4100020981000202DE9F84FFFF708F88B
:10167000384B1A68013A1A601C68002C5CD1364B52
:101680001B68002B58D0DFF8E8A0DFF8E8B0334F34
:10169000DFF8E490DFF8E480DBF80030012623B3C4
:1016A000DBF80C30DC68251D04F11800FEF746FF5E
:1016B0002846FEF743FFE06A3A6806FA00F300EBBB
:1016C00080001343294609EB80003B60FEF710FFC2
:1016D000D8F80030E26ADB6A9A42DDD3CAF80060CB
:1016E000DBF800300126002BDAD13CB11C4B1A6824
:1016F00012683ABB1B4B4FF0FF321A601A4D2C6830
:1017000044B10126FFF720FF08B1CAF80060013C90
:10171000F8D12C60DAF8003073B1144B4FF08052DE
:101720005A6040BFBFF34F8FBFF36F8F0124FEF7A6
:10173000B1FF2046BDE8F88F0024FEF7ABFF20463E
:10174000BDE8F88F1A68074BD268D26852681A60F1
:10175000D4E700BFEC100020E0100020F4100020BF
:101760009C10002024110020E810002000ED00E073
:10177000701100202C110020A410002098100020CF
:1017800070B548B91D4B4FF080525A6040BFBFF34F
:101790004F8FBFF36F8F70BD194A1A4913681A4DE6
:1017A0000133136004460E6828680430FEF7C6FE55
:1017B00040B92B681549D86A0B680122824023EA98
:1017C00002030B602B68A4195C600FD2104B1868E1
:1017D00029680431FEF798FE0E4B1A68944238BF10
:1017E0001C60FFF741FF0028CCD070BD0A4B186881
:1017F00029680431FEF788FEF3E700BF00ED00E042
:10180000EC1000206C11002098100020F410002033
:101810009C10002024110020A01000202DE9F84F7A
:10182000344C354E354DDFF8E890DFF8E880DFF8CE
:10183000E8B04FF0805A14E0FEF722FFF368DF684B
:10184000381DFEF77BFE2B68013B2B602368013BB4
:101850002360FEF71FFF386BFEF738FE3846FEF7B1
:1018600035FE2368002BE7D1254B1B68012B06D9D9
:10187000CBF804A040BFBFF34F8FBFF36F8FD9F8F1
:101880000030012BD8F80030DB6A04D9002BE8D1F6
:101890001B4B1B68E5E7002BE3D1194B1B68012BA1
:1018A000DFD8184B184A1B6812689B1A012BD8D92D
:1018B000164A136801331360D9F80030012BD8F8A9
:1018C0000030DB6A05D90BB90D4B1B68FFF7CCFE66
:1018D000C7E7002BFAD10A4B1B68012BF6D8094B3E
:1018E0001868094B1B68C01A0128EFD9FEF73CFFA6
:1018F000ECE700BFE410002058110020E0100020A9
:10190000A4100020241100206C110020EC100020F5
:10191000F41000209810002000ED00E0104B1B6830
:10192000CBB91049104A0B601368104AB3FA83F31D
:10193000C3F11F0303EB83039B00D01808334168F6
:10194000496841601344994204BF49684160084BAB
:10195000CA681A607047034B01221A60704700BFC3
:10196000EC10002070110020F4100020A4100020C2
:101970009810002070B51C4D2B680C4603F118011F
:10198000FEF7C2FD194B1E6828680430FEF7D6FD2D
:1019900040B92B681649D86A0B680122824023EAB5
:1019A00002030B60631C17D02B68A4195C600BD278
:1019B000104B186829680431FEF7A6FD0E4B1A6813
:1019C000944238BF1C6070BD0C4B18682968BDE894
:1019D00070400431FEF798BD296809480431BDE81C
:1019E0007040FEF785BD00BF981000206C110020EC
:1019F000F41000209C10002024110020A0100020D2
:101A000044110020F8B5234D2B680C4603F1180152
:101A10001746FEF76DFD204B1E682868043047B35B
:101A2000FEF78CFDF0B94FF0FF342B681B49D86AE4
:101A30000B680122824023EA02030B60631C0FD073
:101A40002B6834195C601CD2154B18682968043166
:101A5000FEF75AFD134B1A68944200D21C60F8BD81
:101A6000002FEDD0296810480431BDE8F840FEF79A
:101A70003FBDFEF763FD0028D7D02B6834195C60AA
:101A8000E2D30A4B18682968BDE8F8400431FEF734
:101A90003BBD00BF981000206C110020F410002006
:101AA0009C1000202411002044110020A0100020D0
:101AB000F8B5C368DC6804F118052846FEF73EFD5A
:101AC0001A4B1B6833BB261D194D3046FEF736FDF9
:101AD000E26A2F6817480123934002EB82023B43DE
:101AE000314600EB82002B60FEF702FD124BE26AEA
:101AF0001B68DB6A9A4282BF104B01201860104BB2
:101B00001A68126898BF00204AB90E4B4FF0FF3296
:101B10001A60F8BD29460C48FEF7EAFCE6E71A68A9
:101B2000084BD268D26852681A60F8BDEC100020E9
:101B3000F4100020A4100020981000207011002044
:101B40009C100020241100202C110020034A044B7B
:101B500012681B68C0E90023704700BF28110020ED
:101B60006C110020F8B50D460446FEF789FD2B6880
:101B70001649581C0A6813D0DFF854C0D4E9006035
:101B8000DCF80070BE4201D090421AD9121A93427A
:101B90000BD800232B600125FEF77CFD2846F8BDFD
:101BA0000025FEF777FD2846F8BDDCF800009B1AFB
:101BB0000A682B60C4E900020025FEF76BFD284689
:101BC000F8BD0125FEF766FD2846F8BD6C11002022
:101BD00028110020014B01221A607047701100206B
:101BE000084B186860B9084B1B6853B9074A084B83
:101BF00010681B68013B984214BF01200220704707
:101C0000002070472C11002070110020441100208A
:101C1000E0100020054B1B6833B1054B1B68002BFF
:101C20000CBF0220002070470120704740110020A7
:101C3000EC10002050B1F8B5C36BC16A826B013B58
:101C40009142C36300D01BB10020F8BD0020704753
:101C5000071D04463846FEF771FCC0B11448154E06
:101C6000A36BD6F800E0E3620125C3F1030C05FA8B
:101C700003F203EB830342EA0E0200EB83003946D2
:101C8000C4F818C03260FEF733FC2846F8BDE26A9B
:101C90000748084E02EB82039B00C358002BDFD19C
:101CA0003368012101FA02F223EA02023260D7E727
:101CB000A4100020F41000202DE9F04FAF4EDFF803
:101CC000CC82AF4D89B033681C68002C00F08C804A
:101CD000DB681C68FFF71CFCFFF722FCD8F800301B
:101CE000834207465BD88442C8F8000040F2C480B3
:101CF0000022E11B2868FFF7C9F9FFF7B5FC88B996
:101D0000A04B4FF080525A6040BFBFF34F8FBFF3DC
:101D10006F8F07E0019B039920469847009B002B9B
:101D200080F23681286800226946FFF70BF8002808
:101D3000C9D0009B029C002BECDB636913B1201D12
:101D4000FEF7FCFBFFF7ECFBD8F800309842814629
:101D500041D3009BC8F80090092BE3D8012202FA76
:101D600003F313F4047F40F0D38013F0C70F40F067
:101D7000A5809B06D6D52046FEF7A8FB2868D2E7AB
:101D8000DB68DC68D3F800A004F104094846FEF7DC
:101D9000D5FB636A20469847E369012B36D0336848
:101DA0001A68002AECD17849C8F800700A683260D5
:101DB0000B60FFF759FCB5E7DB68DF68D3F800B0CC
:101DC00007F1040A5046FEF7B9FB7B6A384698478C
:101DD000FB69012B25D033681A68002AECD16A49C7
:101DE0000A6832600B60B4E7FFF792FBFFF798FBDD
:101DF000D8F8003098420746D1D3634BC8F800703A
:101E00001B681A68B2FA82F2520972E7A369534456
:101E10009A45494610D2636024613068FEF774FB2E
:101E2000BDE7BB695B449B45514615D27B603F6172
:101E30003068FEF769FBCEE72B68002BAFD000239C
:101E4000CDE9043A0694FFF7E5FE00231A4604A9FB
:101E50002868FEF723FDA2E72B68002BBBD00023E8
:101E6000CDE9043B0697FFF7D5FE00231A4604A9E7
:101E70002868FEF713FDAEE7FFF7F6FB3368DB6873
:101E8000D3F80C9009F1040A5046FEF757FBD9F835
:101E90001C30012B04D0D9F824304846984741E73C
:101EA000D9F81830C9F81090E218BA42C9F80420DD
:101EB0004AD951463068FEF727FBECE7019BA2693F
:101EC000246199182CBF012000204945616031D858
:101ED000A9EB03039A4226D8636A20469847E36930
:101EE000012B7FF41FAF019BA269286813440028CF
:101EF0003FF419AF0022CDE904230694FFF78AFED0
:101F000000231A4604A92868FEF7C8FC28680AE7D7
:101F1000019B246103EB09024A45A36162600DD86D
:101F2000002B3FF4FFAE184B211D1868FEF7ECFAAA
:101F30002868F8E64B4501D90028CDD03068211D2E
:101F4000FEF7E2FA2868EEE63F1BBB4210D82B688A
:101F5000002BA0D00023CDE90434CDF81890FFF772
:101F600059FE00231A4604A92868FEF797FC92E759
:101F7000054B51461868FEF7C7FA8CE7741100202C
:101F8000A811002000ED00E078110020A41100202D
:101F9000029CD2E6F0B5174C83B0FEF771FB2568C2
:101FA0007DB1FEF777FB206848B1134B0193022304
:101FB00000935022002311491148FFF7CDF803B0D8
:101FC000F0BD104F104E3846FEF782FA3046FEF74D
:101FD0007FFA0E4A0E4B176010212A4620201E6001
:101FE000FEF722FC20600028DBD00A49FFF73CF80E
:101FF000D7E700BFA8110020AC110020243A000050
:10200000B91C00007C1100209011002074110020E8
:10201000781100201C3A00002DE9F04F804683B073
:1020200028200F4616461D46FEF724FA044690B1B6
:10203000DFF87490FEF724FBD9F800207AB1FEF7A0
:1020400029FB0C9BC4F80080C4E906762562636214
:10205000201DFEF749FA204603B0BDE8F08FDFF8F7
:102060004CB0DFF84CA001925846FEF731FA5046CA
:10207000FEF72EFA09490A4BC1F800B0019AC3F8DD
:1020800000A010212020FEF7CFFBC9F80000002897
:10209000D5D00449FEF7E8FFD1E700BF7411002056
:1020A000781100201C3A0000A81100207C110020AB
:1020B0009011002030B5144D2C6885B0C4B10529AD
:1020C000CDE9001202900BDCFFF7A4FD022812D02C
:1020D000002328681A466946FEF7E0FB05B030BDCC
:1020E0001A46204600236946FEF7B2FD05B030BD12
:1020F000204605B030BD2868089A00236946FEF7DF
:10210000CDFB05B030BD00BFA811002010B50446BE
:10211000FEF7B6FA6469003418BF0124FEF7BAFA74
:10212000204610BD10B50446FEF7AAFA246AFEF751
:10213000B1FA204610BD00BF70B51A4B1D789DB195
:10214000194B1C682378C0B2984210D004F10802E1
:10215000002306E014F833108142164602F108020B
:1021600006D001339D42F5D100231B78FFDE2646C1
:1021700000F07AFD7378A3F10103B3FA83F35B09EE
:10218000834200D070BD094BD3E900231343F9D13A
:10219000074B0848196800224908BDE8704000F064
:1021A00027BA00BFB011002000120020D811002073
:1021B000B4110020B81100202DE9F04F974E33786C
:1021C00085B0002B00F02581954F964DDFF8608299
:1021D00000244FF00109D7F800B01BF8340000F0DC
:1021E00043FD0BEBC4031BF834B05B784FEA5B0C88
:1021F0001BF0010E15F80C10A3F10103B3FA83F3E1
:1022000014BF0A0901F00F025B09042A00F2BB8027
:10221000DFE802F08ABB5B400300834200F0D68017
:10222000BEF1000F0CBFF0230F233078194005F8E2
:102230000C10A8B1D7F800C09CF800305B4500F046
:10224000DE800CF10802002304E01CF8331059452D
:1022500000F0D68001338342964602F10802F4D1A1
:102260000020039000F05AFAABF12002CBF12003DA
:1022700029FA03F309FA02F21A4309FA0BF103925D
:102280000291D8E90023DDE9020122EA000023EAF5
:10229000010171E0834232780CD0BEF1000F0CBF17
:1022A000F0230F2303EA01030CBF0421402119434B
:1022B00005F80C10013494428DDBD8E90023134358
:1022C00040F0938005B0BDE8F08F83426FD1BEF13E
:1022D000000F14BF0F23F02303EA0103327814BF69
:1022E00030210321194305F80C10002AE5D0D7F856
:1022F00000C09CF800305B4500F08E800CF10801B6
:102300000023013393428E4601F10801D2D01CF81C
:1023100033005845F5D1DEF80430002BCAD05846BA
:10232000012198473278C5E783422CD1BEF1000FD6
:102330000CBFF0230F2303EA01030CBF012110217E
:1023400019430020019005F80C1000F0E7F9ABF1FB
:10235000200309FA03F301930198CBF1200129FA34
:1023600001F1084309FA0BF101900091D8E900232B
:10237000DDE900011043194302460B460020C8E97D
:10238000002300F0D3F9327894E7834213BF00238F
:10239000202302221A46BEF1000F12BF0F20F020A8
:1023A000134601400B4305F80C30327882E7BEF14A
:1023B000000F0CBFF0230F2303EA01030CBF012120
:1023C0001021194305F80C10327873E7BEF1000FA5
:1023D00014BF0F23F02303EA010314BF30210321AC
:1023E000194305F80C10327864E70F4B0F48196851
:1023F0000022490805B0BDE8F04F00F0F9B8E64604
:10240000DEF80430002B3FF42BAF002158469847EC
:1024100026E7DFF81C8050E7E6467CE7B011002095
:1024200000120020E0110020B4110020B81100209B
:10243000D8110020092A40D9F0B583B00E460546D0
:10244000144600F09BFA002831D0204A2049214B45
:1024500015600E70202200211F481C6001F0C5FA93
:102460001E4B00200021741EC3E90001E4B236B304
:1024700005EBC4041A4E083D032701E0A5421ED017
:102480009DF8063020788DF8047003F0FC036FF39C
:1024900082038DF80630A3788DF80530324601A905
:1024A00000F076FA083C0028E8D003B0F0BD00F058
:1024B0001BFA0028C9D003B0F0BD07207047094AB5
:1024C0000948002100F062F803B0F0BD00120020BE
:1024D000B0110020B4110020E0110020D81100201C
:1024E00039210000B92100002C3A000070B5084DD8
:1024F0002B785BB1074E00243368012113F83400B8
:1025000000F036FB2B780134A342F5D8002070BDD3
:10251000B01100200012002000B585B00023039008
:10252000194601AA44F20100CDE9013300F004F894
:1025300005B05DF804FB00BF72B6094B1B68DB07F2
:1025400000D500BEBFF34F8F0649074BCA6802F49F
:10255000E0621343CB60BFF34F8F00BFFDE700BFC6
:10256000F0ED00E000ED00E00400FA0510B5FFF723
:10257000D9FD027B4AB1427B8168034682F00102A9
:1025800000681A73BDE81040084710BD70B582B0EE
:1025900004682AB3237B0BB9636813B1082002B027
:1025A00070BD15460E4610221946204601F01DFA50
:1025B000002E0CBF012200220B4B6273A56014BFDA
:1025C0000122002200934FF47A7123460748FFF757
:1025D00023FD0028606014BF00200E2002B070BDF3
:1025E000072002B070BD00BF6D250000303A00002A
:1025F0002DE9F041456884B0002D54D0077B77BBAE
:1026000004460E462260EFF3058363B30DF1100814
:10261000009748F8047D0A46434609212846FFF7FB
:1026200049FD012803D0042004B0BDE8F081FEF785
:102630007DFF00970246434628460621FFF73AFDF4
:102640000128F0D1039B43B1194B4FF080525A60DF
:1026500040BFBFF34F8FBFF36F8F01232373002061
:1026600004B0BDE8F0812846FFF750FD074600287A
:10267000F5D14FF0020832460346CDF80080042120
:102680002846FFF717FD01280646CCD1FEF748FF84
:10269000CDF8008002463B4631462846FFF70AFD4A
:1026A0000128DAD0BFE7082004B0BDE8F08100BF00
:1026B00000ED00E0416869B310B5044684B0EFF363
:1026C000058363B902220846009203211A46FFF7E8
:1026D000F1FC01281BD10020207304B010BD04AB15
:1026E000002243F8042D084600920821FFF7E2FC7F
:1026F00001280CD1039B002BEDD0074B4FF08052EB
:102700005A6040BFBFF34F8FBFF36F8FE3E70420E2
:1027100004B010BD0820704700ED00E072B6024A18
:10272000136801331360704704120020034A1368D2
:10273000013B136003B962B6704700BF041200206A
:1027400010B570B101280BD10D4C2369A0703BB1BD
:10275000D3E900230120226198472369002BF7D198
:1027600010BD074CA36801226270002BF8D0D3E99A
:1027700000230020A2609847A368002BF7D1EFE761
:102780000812002038B50A4C23786BB909486360F9
:10279000A3602361E36000F03DF8054600F048F8CF
:1027A00001232370284638BD8525284638BD00BF43
:1027B000081200204127000038B5154CA3780546C3
:1027C00073B110B14368012098470020FFF7A6FFBE
:1027D000E3680133E3600020BDE83840FFF7A6BF9F
:1027E00003F0FF00FFF79AFF65B1226942B19542FD
:1027F00008D0134601E09D4204D01B68002BFAD19B
:102800002A602561E368002BE2D100F023F8DFE7BE
:1028100008120020054A13792BB901211060537169
:102820001846117170478520704700BF1C120020A8
:10283000074B1A68D20704D4C021012283F8001381
:102840001A604FF080430122C3F81825704700BF7B
:1028500000E100E010B4094B094A0021196083B07F
:102860001B680193019C4FF0804102200123C1F8B5
:102870000403136003B05DF8044B7047040100408B
:102880000800004010B5154B1A6882B07AB10021DB
:10289000134A19601B68507900934FF0804101235F
:1028A000009CC1F8083310B91168537188470D4B6B
:1028B0001A6882B100221A601B6801934FF08042AF
:1028C0000221074B0198C2F808131B68012002B0CF
:1028D000BDE81040184702B010BD00BF0001004025
:1028E0001C1200200401004030B5204C94F86A50BE
:1028F00083B0002D36D14FF0FF332946062204F174
:102900006400C4E90033C4E90233C4E90433C4E910
:102910000633C4E90833C4E90A33C4E90C33C4E913
:102920000E33C4E91033C4E91233C4E91433C4E9E3
:102930001633236601F059F80D4A0E4B0E491D60FF
:10294000C02082F80603402010601B6801930198A4
:102950004FF000430122284684F86A20C1F804336E
:1029600003B030BD082003B030BD00BF24120020EA
:1029700000E100E07C61004000600040034B93F800
:102980006A00003018BF0120704700BF24120020E9
:10299000F0B5744B1C1894F93050002D6ADA8E781B
:1029A000C6F340069646002E5ED11D6A013500F042
:1029B000C48009240C2553F8247001375DD004F13C
:1029C000010C53F82C70013700F0C280A71CAF42F5
:1029D00048D253F82720013200F0BC8004F1030CE8
:1029E000AC453FD253F82C70013700F0B18004F1B0
:1029F000040CAC4536D253F82C70013700F0A88097
:102A000004F1050CAC452DD253F82C70013700F0C1
:102A10009F8004F1060CAC4524D253F82C7001378A
:102A200000F0968004F1070CAC451BD253F82C70D3
:102A3000013700F08D8004F1080CAC4512D253F838
:102A40002C70013700F0848004F1090CAC4509D2E8
:102A500053F82C7001377BD00A34AC4202D2DC6AC6
:102A6000013409D00420F0BD1D68013574D0012463
:102A70000825A0E70820F0BD0B241F1865B243F815
:102A800024E087F83050002E5ED08A7854071AD49C
:102A9000D60741D41F284A7887BF334E00F01F0461
:102AA00004464FF0A04604F5E074920046F8242056
:102AB0002E4EC40800F0070C375D012202FA0CF21A
:102AC0003A4332558A780C7812F0020209D1083D57
:102AD0002B44104693F8602042EA841483F8604047
:102AE000F0BDAB0003F1804303F5C0430202D3F80D
:102AF000101521F44F3121F44071C3F8101524044E
:102B0000D3F8101504F4403402F47C5222430A43F3
:102B1000C3F810250020F0BD1F2887BF124A00F01F
:102B20001F0404464FF0A04202EB8402D2F8004793
:102B300024F00204C2F80047BAE7082684F830609F
:102B4000C3F820E0354634461C4484F858009CE71E
:102B5000644692E73C4690E700251A6084F83050BE
:102B600093E700BF241200200003005088120020C9
:102B700070B43A4D2E1883B096F93030072B20DD13
:102B80002B4493F858309B09032B45D0012B14BFDD
:102B90004FF440314FF400311F284DD900F01F0091
:102BA0002F4B03EB8000D0F8002722F44032C0F80E
:102BB0000027D0F800370B43C0F8003703B070BCD3
:102BC0007047DAB2072AF9D8980000F1804000F582
:102BD000C04003F14002D0F81045920092B244F098
:102BE000010402F18042C0F8104502F5C042002005
:102BF0000190019C10600029E0D096F9302055F832
:102C00002220002ADAD00122164902FA03F3C1F881
:102C1000043303B070BC70471F2810D9104BD3F891
:102C2000103500F01F00C34013F0010F0CBF4FF42C
:102C300000314FF44031B3E74FF0A043B1E74FF01C
:102C4000A0421346D2F81025C24012F0010F14BF63
:102C50004FF440314FF40031A3E700BF24120020AD
:102C600000030050006000401F288ABF054B4FF052
:102C7000A04300F01F00D3F8103523FA00F000F055
:102C800001007047000300502DE9F047002388B091
:102C9000CDE90233CE4A1168012900F03B821E467D
:102CA000CC4B1A68012A00F02782CB4B1A68012A04
:102CB00000F01482C94B1A68012A00F00182C84B47
:102CC0001A68012A00F0EE81C64B1A68012A00F04A
:102CD000DB81C54B1A68012A00F0C881C34B1A6812
:102CE000012A00F0B581C24B1A68012A0FD10022D7
:102CF0001A601B6801934FF0A042019BD2F8102587
:102D0000BC4B0292D3F81035039346F0004616F000
:102D1000FF0F1AD0B84F01250024A30003F1804310
:102D20002E4203F5C0434FEA45050BD0D3F81005FA
:102D300057F82420D3F81015C0F30520C1F3014142
:102D400002B190470134082CE7D1002E02DB08B015
:102D5000BDE8F087A84CA74F4FF0FF33CDE906330D
:102D600094F960300DF1100800225D1CC8F80420B1
:102D700004924FF0010600F0F4805FFA83FC2CF01F
:102D8000C00008AB4FEAD00903EB090E0CF00703B3
:102D90001EF8082C06FA03F312EA030521D02218C4
:102DA0004FEA9C1192F9302054F82220002A00F0BA
:102DB0002981032900F028811F2800F2F9800546A7
:102DC0004FF0A04C0CEB850C1EF8185CDCF800E70B
:102DD0001D40CEF3014E40F0DF80BEF1030F00F046
:102DE000E68194F96130581C32D0DBB223F0C00088
:102DF00008AA4FEAD00E02EB0E0C03F007011CF8F4
:102E0000082C06FA01F912EA090F21D022189909B3
:102E100092F9302054F82220002A00F0FB80032988
:102E200000F0FB801F2800F2E98003464FF0A04E1F
:102E30000EEB83031CF818ECD3F800C71EEA090F49
:102E4000CCF3014C40F0B880BCF1030F00F09B8143
:102E500094F96230591C30D0DBB223F0C00008AACC
:102E60004FEAD00E02EB0E0C03F007011CF8082C01
:102E700006FA01F912EA090F1FD02218990992F9EE
:102E8000302054F82220002A00F0D880032900F0D6
:102E9000D8801F287CD803464FF0A04E0EEB83034A
:102EA0001CF818ECD3F800C71EEA090FCCF3014C4C
:102EB00064D1BCF1030F00F0528194F963305A1CC5
:102EC00034D0DBB223F0C00008AA4FEAD00E02EBE8
:102ED0000E0C03F007021CF8081C06FA02F211425D
:102EE00024D004EB0009990999F9309054F82990FD
:102EF000B9F1000F00F09880032900F098801F2896
:102F00008BBFBE464FF0A04E03F01F0303460EEBEF
:102F100083031CF818ECD3F800C71EEA020FCCF3A9
:102F2000014C20D1BCF1030F00F00081002D3FF4D3
:102F30000EAF4FF0A0430299D3F81035D7F8102503
:102F4000994203D1039991423FF401AFDDE90401B5
:102F5000CDE9023294F960305D1CCDE906017FF4C1
:102F60000CAF00253DE7BCF1020FDFD1032900F0D3
:102F70003081B9F1000F40F0F080D7E7BCF1020FCB
:102F80009BD1032900F02881002A96D0904794E72E
:102F900003F01F03BE4681E7BEF1020FE1D1032912
:102FA00000F020810025002A3FF41BAF904718E76E
:102FB0000CF01F05BC4605E7BCF1020F7FF448AFDB
:102FC000032900F00C81002A3FF442AF90473FE70D
:102FD0000061004004610040086100400C61004055
:102FE0001061004014610040186100401C61004005
:102FF0007C610040000300502412002003F01F03F6
:10300000BE4615E70329ACD118F809501D4308F84E
:103010000950D1E603297FF41BAF18F80EA04AEA45
:10302000090A08F80EA0FDE603297FF47FAF18F81F
:103030000EA04AEA020A08F80EA060E703297FF40E
:103040003CAF18F80EA04AEA090A08F80EA020E7DB
:10305000664AD2F8042317067FF545AE00221A60AF
:103060001B680093009B46F080063CE65F4AD2F85E
:10307000042352067FF532AE00221A601B680093CB
:10308000009B46F0400629E6584AD2F804239106F0
:103090007FF51FAE00221A601B680093009B46F06C
:1030A000200616E6514AD2F80423D0067FF50CAE6E
:1030B00000221A601B680093009B46F0100603E68E
:1030C0004A4AD2F8042314077FF5F9AD00221A60AA
:1030D0001B680093009B46F00806F0E5434AD2F8CF
:1030E000042355077FF5E6AD00221A601B680093A4
:1030F000009B46F00406DDE53C4AD2F8042397071E
:103100007FF5D3AD00221A601B680093009B46F048
:103110000206CAE53549D1F8046316F001063FF40A
:10312000BFAD136013680093009BB9E503297FF4DA
:1031300020AF4FF4003CD3F8002722F44032C3F80C
:103140000027D3F80027013542EA0C02EDB2C3F89C
:103150000027B9F1000F3FF4ECAEC847E6E60329BB
:103160007FF412AF4FF4003ED3F800C72CF4403C7C
:10317000C3F800C7D3F800C701354EEA0C0CEDB216
:10318000C3F800C700E703297FF41DAF4FF4003EEA
:10319000D3F800C72CF4403CC3F800C7D3F800C7ED
:1031A00001354EEA0C0CEDB2C3F800C70BE703295A
:1031B0007FF4F9AE4FF40035DCF8003723F44033E8
:1031C000CCF80037DCF800372B43CCF8003701256A
:1031D000E9E64FF4403CAEE74FF4403EC4E74FF41D
:1031E000403ED5E74FF44035E6E700BF00600040C1
:1031F0000220FDF7E5B800BF2DE9F0470D46064671
:10320000FDF7F8F803281ED8012D04461DD00ED373
:10321000022D18D11B4B00EB40041C44657895B17E
:10322000194B1B687BB12846BDE8F0471847174883
:10323000FFF740FA134B164A04EB44010B44125DAE
:103240009D78AA42EBD0BDE8F0870E4F4FEA4008C8
:1032500008EB0003FA18FD5C53782BB9A0444744EF
:103260000B4BBA781A55DAE7DFF8289007484A4638
:103270004FF48061FFF7BCF90028EFD189F80060B6
:10328000ECE700BFF412002008130020B412002065
:10329000101300209012002010B50078FDF7AAF856
:1032A00003280BD8064B00EB40001844407828B1A7
:1032B000044B1B6813B1BDE81040184710BD00BF98
:1032C000F412002008130020AE4B1B68DB0700D46B
:1032D000704770B5AC4DAD4E2B7834786BB1AC4BBC
:1032E0001B7800202870002B44D0FDF729F801201E
:1032F000FDF726F80320FDF723F8172C39D8DFE86F
:1033000014F0AE00EB00EB00D300FF00C2000A0196
:10331000E50049003C0049003C0059001800180035
:103320001800180018005E006F0083009700550019
:1033300055009848FFF7BEF9D4F11104024600F099
:10334000F680002840F0F380012C0CD04FF4483177
:1033500001FB04F1904B8F4801F5FA71A3FB013199
:103360008909FFF745F90220FCF7D6FF884B0122B7
:103370001A7070BDFCF7F8FFBFE7012318462B70E9
:10338000FDF71EF800224FF400718448BDE870403C
:10339000FFF72EB9012318462B70FDF711F8002214
:1033A00066217E48BDE87040FFF722B9FCF7F2FFC6
:1033B000347070BDFCF7EEFF0C23337070BD744B9E
:1033C0001B78002B00F0BD800020FCF7B9FF012026
:1033D000FCF7B6FF0320FCF7B3FF1223337070BD78
:1033E0006B4B1B78002B00F0AF800020FCF7A8FF90
:1033F0000120FCF7A5FF0320FCF7A2FF0020FCF74B
:103400008BFF1323337070BD614B1B78002B00F0D2
:10341000A9800020FCF794FF0120FCF791FF032016
:10342000FCF78EFF0120FCF777FF1423337070BD8B
:10343000574B1B78002B00F081800020FCF780FFA9
:103440000120FCF77DFF0320FCF77AFF0020FCF74A
:1034500063FF0120FCF760FF1523337070BD4C4BF8
:103460001B78002B00F085800020FCF769FF01200D
:10347000FCF766FF0320FCF763FF4848FFF71AF9E3
:103480000023337070BD0020FCF732FF00285ED0AF
:103490000020FCF755FF052333700022CD213F4863
:1034A000BDE87040FFF7A4B80020FCF721FF00281A
:1034B0005BD00020FCF744FF40F23331032333702C
:1034C00000223648BDE87040FFF792B80020FCF7B4
:1034D00023FF0723337070BD0020FCF709FFC8B33A
:1034E0000020FCF72DFF022C40F2337118BF4FF47F
:1034F0008051347000222948BDE87040FFF778B849
:103500000020FCF7F5FEB8B30020FCF719FF4FF4DC
:1035100080510423D3E70020FCF752FF06233370C9
:10352000002266211D48BDE87040FFF761B8022007
:10353000FCF706FF164B00221A7070BDFCF714FF53
:1035400084E7FCF711FF48E7FCF70EFF56E7FCF7AE
:10355000E3FEA0E7FCF7E0FE022C14BF4FF4CD71B0
:10356000CD21C6E7FCF700FF5CE7FCF7D5FECD21D7
:10357000A4E7FCF7F9FE80E7FCF7CEFE4FF4CD712F
:10358000C7E700BF00130020041300200C13002025
:103590009112002094120020D34D6210D41200200A
:1035A00038B5234B234A19608307106000F00105EA
:1035B00003D4C5B92C46204638BD1F4B1F480E24E6
:1035C0000F2210211C701124DA7099715C72332261
:1035D0000421FEF72FFF0446B8B115B10120FCF716
:1035E0001BFF204638BD0120FCF716FF144A154882
:1035F0000021FEF7CBFF04460028F2D1124A1348FF
:103600000121BDE83840FEF7C1BFFEF76FFF044659
:103610000028E2D101460E4A0E48FEF7B7FF0446E5
:10362000002DDED00120FCF7F7FE002CD9D1DDE71C
:103630000813002000130020F4120020343A000088
:10364000C93200005C3A0000F1310000543A000039
:1036500099320000583A000010B50E3882B00328A5
:1036600018D8DFE800F0330226191E4B0093012220
:1036700000234FF4FA611C48FEF7CEFC1B4B0446B6
:103680001C60FDF74DFF00230246009320460121F8
:10369000FEF710FD02B010BD154B019302230093FD
:1036A0004FF48272002310491248FDF755FD02B015
:1036B00010BD114B0193022300934FF4827200233B
:1036C00009490E48FDF748FD02B010BD0C4B0093B0
:1036D000012200234FF47A710A48FEF79DFC0A4B41
:1036E0000446CDE739370000683A00002C1300206B
:1036F000341300200D370000241300201D37000074
:1037000055370000603A00003013002008B5032050
:10371000FCF756FEC820FEF733F8F8E708B502209C
:10372000FCF7FAFD4FF47A60FEF72AF80220BDE8B4
:103730000840FCF705BE00BF08B50120FCF7ECFD12
:103740004FF47A70FEF71CF80120BDE80840FCF742
:10375000F7BD00BF08B50020FCF7DEFD4FF47A701E
:10376000FEF70EF80020BDE80840FCF7E9BD00BFF9
:1037700008B5FFF707F858B907490320FFF710FF0E
:10378000064A136943F004031361FDF7D9FDFEE710
:10379000FEF7C2FEF0E700BF5936000000ED00E082
:1037A00010B44FF080414FF080520020C1F80C015E
:1037B0005E4BC1F81001C1F83805D2F80414C3F803
:1037C0002015D2F80814C3F82415D2F80C14C3F845
:1037D0002815D2F81014C3F82C15D2F81414C3F815
:1037E0003015D2F81814C3F83415D2F81C14C3F8E5
:1037F0004015D2F82014C3F84415D2F82414C3F8A5
:103800004815D2F82814C3F84C15D2F82C14C3F874
:103810005015D2F83014C3F85415D2F83414C3F844
:103820006015D2F83814C3F86415D2F83C04C3F814
:103830006805D2F840043E49C3F86C050968D2F81F
:103840004424C3F87025082924D04FF08043D3F8CE
:103850000024D20744BF6FF00102C3F80024354AA8
:10386000D2F8883043F47003C2F88830BFF34F8F2A
:10387000BFF36F8F4FF01023D3F80022002A23DB11
:10388000D3F80432002B1FDB2B4B2C4A1A605DF857
:10389000044B70472A4B1B68002BD6D129482A4A73
:1038A0002A4C04602A492B4BFB20C2F818050A68F1
:1038B0001B68294822F00F0203F00F0313434FF453
:1038C00000720B600260C0E7244B0122C3F804259C
:1038D000D3F80024002AFBD04FF0102312221F49F6
:1038E000C3F80022D1F80034002BFBD04FF0102297
:1038F00012211A4BC2F80412D3F80024002AFBD07C
:1039000000221649C3F80425D1F80034002BFBD05F
:10391000BFF34F8F0749124BCA6802F4E0621343AA
:10392000CB60BFF34F8F00BFFDE700BF00C000407A
:103930003001001000ED00E0000000200090D003F6
:10394000340100108C56004000F000404881030014
:10395000E40E0040580200104096024000E0014092
:103960000400FA0508B5074B044613B10021AFF374
:103970000080054B1868836A03B19847204600F021
:103980003DF800BF00000000703A000070B50D4E19
:103990000D4CA41BA4100025A54209D10B4E0C4CC4
:1039A00000F02EF8A41BA4100025A54205D170BD7F
:1039B00056F8253098470135EEE756F825309847F8
:1039C0000135F2E76400002064000020640000205C
:1039D0006800002010B5431E0A44914200D110BD7A
:1039E00011F8014B03F8014FF7E7024403469342F5
:1039F00000D1704703F8011BF9E70000FEE700BFA4
:103A0000F8B500BFF8BC08BC9E467047F8B500BFCB
:103A1000F8BC08BC9E4670470D0E0F10546D7251D5
:103A200000000000546D722053766300B81100202E
:103A3000200000000B000300F93100000C0003001F
:103A4000F931000018000300F931000019000300EB
:103A5000F931000094120020B4120020D41200208A
:103A60004C454430000000004C454431000000004B
:083A700004000020000000002A
:083A7800C8C7FF7F0100000038
:103A80000090D003000000000000000000000000D3
:103A90000000000000000000000000000000000026
:103AA0000000000000000000000000000000000016
:103AB0000000000000000000000000000000000006
:103AC00000000000000000000000000000000000F6
:103AD00000000000000000000000000000000000E6
:0C3AE000000000002502000001020000B0
:04000003000002B542
:00000001FF
