:1000000000000420B5020000DD020000DF02000055
:10001000E1020000E3020000E50200000000000031
:10002000000000000000000000000000E7020000E7
:10003000E902000000000000EB020000ED020000F9
:10004000EF020000EF020000EF020000EF020000EC
:10005000EF020000EF02000089150000EF0200002F
:10006000EF020000E11B0000EF020000EF020000C1
:10007000EF020000EF020000EF020000EF020000BC
:10008000EF0200004D100000EF020000EF02000040
:10009000EF020000EF020000EF020000EF0200009C
:1000A000EF020000EF020000EF020000EF0200008C
:1000B000EF020000EF02000000000000000000005E
:1000C000EF020000EF020000EF020000EF0200006C
:1000D000EF020000EF020000EF020000EF0200005C
:1000E000EF020000EF020000EF020000000000003D
:1000F00000000000EF02000000000000EF0200001E
:1001000000000000000000000000000000000000EF
:1001100000000000000000000000000000000000DF
:1001200000000000000000000000000000000000CF
:1001300000000000000000000000000000000000BF
:1001400000000000000000000000000000000000AF
:10015000000000000000000000000000000000009F
:10016000000000000000000000000000000000008F
:10017000000000000000000000000000000000007F
:10018000000000000000000000000000000000006F
:10019000000000000000000000000000000000005F
:1001A000000000000000000000000000000000004F
:1001B000000000000000000000000000000000003F
:1001C000000000000000000000000000000000002F
:1001D000000000000000000000000000000000001F
:1001E000000000000000000000000000000000000F
:1001F00000000000000000000000000000000000FF
:1002000010B5054C237833B9044B13B10448AFF350
:1002100000800123237010BD780000200000000042
:10022000B427000008B5034B1BB103490348AFF3E3
:10023000008008BD000000007C000020B427000002
:10024000154B002B08BF134B9D46A3F5803A0021A8
:100250008B460F461348144A121A02F0E1F80F4B6E
:10026000002B00D098470E4B002B00D09847002061
:10027000002104000D000D48002802D00C48AFF307
:10028000008002F0A9F82000290001F08DFF02F0A3
:100290008FF800BF000008000000042000000000EC
:1002A0000000000078000020100300200000000083
:1002B000000000000649074A074B9B1A03DD043B78
:1002C000C858D050FBDC01F091FFFFF7B9FF0000E8
:1002D000C02700000000002078000020FEE7FEE7B5
:1002E000FEE7FEE7FEE7FEE7FEE7FEE7FEE7FEE7E6
:1002F000074B1B5C1F2B8ABF064A4FF0A04203F03E
:100300001F03D2F80405D840C04300F00100704735
:100310004C27000000030050074B1B5C1F2B86BFBF
:1003200003F01F0305494FF0A041012202FA03F335
:10033000C1F80C35704700BF4C2700000003005087
:10034000074B1B5C1F2B86BF03F01F0305494FF0B3
:10035000A041012202FA03F3C1F80835704700BF3B
:100360004C270000000300504FF0A04310B44FF49E
:1003700080404FF400544FF400414FF48032C3F8F2
:100380000845C3F80805C3F80815C3F808255DF843
:10039000044B70474FF0A04310B44FF480404FF42B
:1003A00000544FF400414FF48032C3F80C45C3F8B9
:1003B0000C05C3F80C15C3F80C255DF8044B704709
:1003C0000A4B195C1F298ABF09484FF0A04001F071
:1003D0001F01D0F8043501228A4022EA03011340AC
:1003E000C0F80815C0F80C35704700BF4C27000056
:1003F000000300500B2809D00C2809D0182809D078
:1004000019280CBF03204FF0FF30704700207047C1
:100410000120704702207047C20730B40ED4830712
:100420000AD54FF0A0430C22C3F82C27C3F830277D
:10043000C3F86027C3F8642730BC70474FF0A0436F
:100440000322C3F834274FF40055C3F838274FF47C
:100450008044C3F83C274FF40041C3F840274FF4D1
:100460008032C3F80855C3F80845C3F80815C3F827
:100470000825D4E770B51A4B1D789DB1194B1C683F
:100480002378C0B2984210D004F10802002306E09D
:1004900014F833108142164602F1080206D00133E7
:1004A0009D42F5D100231B78FFDE264601F05CF863
:1004B0007378A3F10103B3FA83F35B09834200D09D
:1004C00070BD094BD3E900231343F9D1074B08480A
:1004D000196800224908BDE8704000F0FBBB00BF6E
:1004E00094000020E8000020C000002098000020B8
:1004F000A00000202DE9F04F974E337885B0002BF7
:1005000000F02581954F964DDFF8608200244FF072
:100510000109D7F800B01BF8340001F025F80BEB07
:10052000C4031BF834B05B784FEA5B0C1BF0010E80
:1005300015F80C10A3F10103B3FA83F314BF0A09F1
:1005400001F00F025B09042A00F2BB80DFE802F031
:100550008ABB5B400300834200F0D680BEF1000FEF
:100560000CBFF0230F233078194005F80C10A8B108
:10057000D7F800C09CF800305B4500F0DE800CF13D
:100580000802002304E01CF83310594500F0D6801F
:1005900001338342964602F10802F4D10020039011
:1005A00000F00AFCABF12002CBF1200329FA03F39F
:1005B00009FA02F21A4309FA0BF103920291D8E9FF
:1005C0000023DDE9020122EA000023EA010171E0D3
:1005D000834232780CD0BEF1000F0CBFF0230F2302
:1005E00003EA01030CBF04214021194305F80C1054
:1005F000013494428DDBD8E90023134340F093800B
:1006000005B0BDE8F08F83426FD1BEF1000F14BF7B
:100610000F23F02303EA0103327814BF30210321B2
:10062000194305F80C10002AE5D0D7F800C09CF853
:1006300000305B4500F08E800CF10801002301338F
:1006400093428E4601F10801D2D01CF83300584580
:10065000F5D1DEF80430002BCAD058460121984766
:100660003278C5E783422CD1BEF1000F0CBFF023D6
:100670000F2303EA01030CBF0121102119430020BD
:10068000019005F80C1000F097FBABF1200309FA7C
:1006900003F301930198CBF1200129FA01F10843FA
:1006A00009FA0BF101900091D8E90023DDE900017E
:1006B0001043194302460B460020C8E9002300F00E
:1006C00083FB327894E7834213BF00232023022266
:1006D0001A46BEF1000F12BF0F20F0201346014052
:1006E0000B4305F80C30327882E7BEF1000F0CBFE7
:1006F000F0230F2303EA01030CBF0121102119434A
:1007000005F80C10327873E7BEF1000F14BF0F2309
:10071000F02303EA010314BF30210321194305F834
:100720000C10327864E70F4B0F4819680022490813
:1007300005B0BDE8F04F00F0CDBAE646DEF8043073
:10074000002B3FF42BAF00215846984726E7DFF8EF
:100750001C8050E7E6467CE794000020E80000207B
:10076000C800002098000020A0000020C000002049
:10077000092A40D9F0B583B00E460546144600F06C
:100780007DFD002831D0204A2049214B15600E7094
:10079000202200211F481C6001F042FE1E4B002059
:1007A0000021741EC3E90001E4B236B305EBC404B2
:1007B0001A4E083D032701E0A5421ED09DF80630E1
:1007C00020788DF8047003F0FC036FF382038DF83A
:1007D0000630A3788DF80530324601A900F058FDA7
:1007E000083C0028E8D003B0F0BD00F0FDFC002874
:1007F000C9D003B0F0BD07207047094A094800215D
:1008000000F05AFA03B0F0BDE80000209400002088
:1008100098000020C8000020C000002075040000DF
:10082000F50400005027000070B5084D2B785BB12F
:10083000074E00243368012113F8340000F018FE3D
:100840002B780134A342F5D8002070BD940000201D
:10085000E800002000B585B000230390194601AAE6
:1008600044F20100CDE9013300F004F805B05DF871
:1008700004FB00BF72B6094B1B68DB0700D500BE46
:10088000BFF34F8F0649074BCA6802F4E062134377
:10089000CB60BFF34F8F00BFFDE700BFF0ED00E07E
:1008A00000ED00E00400FA05B0F5A07F0AD1064B88
:1008B0001B7813B9054B02221A70054A054B1068C4
:1008C0001B681847704700BFEC000020ED000020B7
:1008D000F4000020F000002000B583B002A9084B0E
:1008E00041F8083D074A08480023019301F000F948
:1008F00010B9064B01221A7003B05DF804FB00BF6B
:1009000004000006A908000054270000ED000020A4
:10091000D0E90223D1E90201994208BF90422CBFDD
:1009200001200020704700BF2DE9F04F87B00390F1
:1009300000F04AFB40B19B49D1E9002312F18074D9
:1009400043F10005C1E9004500210398964C00F0F1
:1009500057FB60B1236853B1944B25681B7823B1D2
:100960001DB12B7F002B40F02D810023236001213E
:10097000039800F045FB002840F0F38005A98C485F
:1009800000F0C2FB18B38B4E884F894D0378012BC2
:1009900000F0C680C0F0CC80022B0ED130464FF064
:1009A000000800F003FC30B180F81C80304600F0F5
:1009B000FDFB0028F8D101233B7005A9284600F073
:1009C000D1FB05A9284600F09FFB0028DED1794E17
:1009D000794FDFF8D09103E00D2855D00023236034
:1009E000304600F0E9FB2368002800F0B48063B1D2
:1009F0002368D0E90201D3E90223994208BF90425B
:100A00003BD223681B7F002B7FD1304600F0CEFB0A
:100A10000546D5E902233846CDE9002300F002FB64
:100A2000D9E90023DFF8948112EB000A43F1000BAF
:100A3000D8E900239B4508BF924503D21AF1807A7A
:100A40004BF1000BDDE90001B0EB0A0061EB0B019B
:100A5000012871F1000313DBDFF864A1504559D878
:100A6000AA684FF496030021384600F027FA0028C0
:100A7000B2D12368002B67D0256007B0BDE8F08FA6
:100A80000021384600F0B0FA484B1B78002BA5D067
:100A90002B7F002BA2D0384600F0C4FAD8E90023FF
:100AA000D9E900ABCDE900231AEB00024BF10003BA
:100AB00010461946DDE90023994208BF904203D24F
:100AC00010F1807041F10001D5E90223994208BF7D
:100AD000904261D32B6903B92B77D5E9053098474C
:100AE000296900293FF47AAF2B7F002B3FF476AFC2
:100AF000D5E9022312EB010A43F1000BC5E902AB71
:100B00002946304600F03EFB68E72168304600F099
:100B100039FB7AE7384600F085FA00EB0A02A0E7D5
:100B200041682368994213D0304600F049FB44E7FE
:100B300043681A7F002A7FF440AF01221A77416888
:100B4000304600F01FFB38E7039800F089F993E77F
:100B50000023236031E7002B8FD1039800F084F944
:100B60008BE71548DFF8548000F05CFA0D4BD3E9B1
:100B70000067D8E9002316EB000947F1000A9A45FF
:100B800008BF91454846514603D219F180704AF199
:100B90000001C8E90001F1E62946304600F0F2FA0A
:100BA0001CE700BF00010020800100200801002098
:100BB0006401002060270000000000207801002070
:100BC000FFFFB4001D4800F02DFA1D4A1D4BD2E96D
:100BD0000067D3E9002316EB000847F100099945A7
:100BE00008BF90454046494603D218F1807049F14C
:100BF0000001D5E90223994208BF904219D32B691D
:100C000003B92B77D5E905309847296900293FF4C6
:100C1000ACAE2B7F002B3FF4A8AED5E902235618CB
:100C200043F10007C5E902672946074800F0AAFA20
:100C30009BE62946044800F0A5FA96E6000000204D
:100C400000010020780100206027000010B5134B40
:100C500013491B68134882B058220193082300F0FF
:100C6000FFF9044610B1204602B010BD0E4A0F48ED
:100C700001A900F0B3F804460028F4D101210B4883
:100C800000F098F901231946094A084800F0F0F8E5
:100C9000084B012220461A7002B010BD5C270000EC
:100CA0000C01002064010020290900000000002040
:100CB000FFFF7F00080100204AB1A1F10101036894
:100CC000B1FA81F14909C3E90412002070470720F5
:100CD000704700BF037F0BB1002070472DE9F0483B
:100CE000826182B004461F480D4600F09BF91E4BFE
:100CF0001E49D3E90023D1E9006712EB000B43F151
:100D0000000CBC4508BFB34503D21BF1807B4CF1FE
:100D1000000C1BEB050221694CF10003C4E902231E
:100D200079B901A9124800F0B3F988B100254460EF
:100D3000057001A90E4800F0D7F968B902B0BDE806
:100D4000F088256101A90A4800F0A2F90028EDD138
:100D5000042002B0BDE8F088024800F067F9284698
:100D6000ECE700BF00000020000100207801002017
:100D70006401002030B5002583B00446057701A941
:100D80000B4800F085F978B101234460037001A994
:100D9000074800F0A9F908B903B030BD054800F0D4
:100DA00045F9284603B030BD042003B030BD00BF74
:100DB000640100200000002072B6024A136801336B
:100DC0001360704784010020034A1368013B1360DD
:100DD00003B962B6704700BF8401002070B41C4C98
:100DE00043791C4E04EBC30546F823202D7965BBDF
:100DF00003680A88C3F8082590F904308A78002B24
:100E00001BDB03F1604303F561435201D2B283F867
:100E1000002390F90430104D03F01F0201215B09FB
:100E200001FA02F245F82320437904EBC30244F8A7
:100E300033001171002070BC7047084903F00F03A4
:100E400052011944D2B20A76E3E7082070BC704719
:100E5000880100209001002000E100E0FCEC00E0AF
:100E6000036801221A607047036801225A607047C4
:100E7000F0B404684FF480358D40C4F80853066818
:100E80008C00C6F8485304F5A0740668A4B2002785
:100E9000375182B036590468019601F5A87122F0E5
:100EA0007F42019E44F821200268C2F8445313B1E6
:100EB0000368C3F8045302B0F0BC70472DE9F04753
:100EC00088464FF48037016807FA08F7C1F848737D
:100ED0000168C1F80873064600684FEA88040119E2
:100EE000D0F80455D1F84005C1F8405504F5A07478
:100EF000A4B231684FF0000941F8049082B0401B61
:100F00000959009120F07F4001289A4622F07F4540
:100F1000009B0BD1264B4FF4806043F001039847B0
:100F2000336843F804901B590193019B3368D3F84D
:100F30000445C3F844732B1B23F07F43012B08F5B2
:100F4000A87817D130681A4B013540F8285043F083
:100F500001034FF4806098473268D2F804359C4210
:100F600022D1C2F8447333680020C3F8047302B07E
:100F7000BDE8F087336843F828503268D2F804158A
:100F80006B1ACAF1FF1A013B0AF57F4A23F07F432F
:100F90009A4509D3002BE4D1013542F82850326834
:100FA000D2F804359942DCD00D2002B0BDE8F087BC
:100FB0007027000002680223C2F8443311B10268AE
:100FC000C2F80433704700BF0368D3F8040150B17E
:100FD000002282B0C3F80421D3F804310193019BAD
:100FE000012002B0704770474FF48033026803FA63
:100FF00001F1C2F848130368C3F80813704700BF33
:10100000890001F5A07189B20368585840B10022E7
:101010005A5082B05B580193019B012002B0704787
:10102000704700BF0368D3F80405704790F9043097
:1010300005485A09403203F01F03012101FA03F366
:1010400040F82230704700BF00E100E0024A034B45
:1010500010681B68184700BF88010020900100201D
:1010600099B110B4B2FBF3F403FB1424A4B244B955
:10107000C0E9001484608281C38120465DF8044B7E
:10108000704709205DF8044B70470E20704700BF81
:1010900030B482B050E8013F9DB2C48925448489B0
:1010A000A54228BF2D1B0489A54202BFBFF32F8F85
:1010B000002207E0C5EA030540E80154002CE9D10D
:1010C0004FF001028DF803200193019B9DF803204E
:1010D0000B602AB10B880068184402B030BC70471E
:1010E00002F0FF031846F8E70A884B889A4201D0BD
:1010F0000020704750E8012FC2EA024240E8012375
:10110000002BF7D10120704730B482B050E8023F85
:101110001FFAA3F5C488A54202BFBFF32F8F002298
:101120000DE0C48925448489A54228BF2D1BC3EA4C
:10113000054540E80254002CE8D14FF001028DF83B
:1011400003200193019B9DF803200B602AB14B887B
:101150000068184402B030BC704702F0FF03184624
:10116000F8E700BF0A884B889A4201D000207047F8
:1011700050E8022FC2EA224240E80223002BF7D1B6
:101180000120704770B54468064620680D4618B9BE
:1011900008E02468206828B1B368294698470028E9
:1011A000F7D120682860256070BD00BF43681868CB
:1011B00008B102681A60704743681868704700BF3A
:1011C0004068036873B18B4203D107E0814204D0C9
:1011D000034618680028F9D1704718460B68036069
:1011E000012070471846704730B5204C94F86A507B
:1011F00083B0002D36D14FF0FF332946062204F18B
:101200006400C4E90033C4E90233C4E90433C4E927
:101210000633C4E90833C4E90A33C4E90C33C4E92A
:101220000E33C4E91033C4E91233C4E91433C4E9FA
:101230001633236601F0F4F80D4A0E4B0E491D607B
:10124000C02082F80603402010601B6801930198BB
:101250004FF000430122284684F86A20C1F8043385
:1012600003B030BD082003B030BD00BF94010020A2
:1012700000E100E07C61004000600040034B93F817
:101280006A00003018BF0120704700BF94010020A1
:10129000F0B5744B1C1894F93050002D6ADA8E7832
:1012A000C6F340069646002E5ED11D6A013500F059
:1012B000C48009240C2553F8247001375DD004F153
:1012C000010C53F82C70013700F0C280A71CAF420C
:1012D00048D253F82720013200F0BC8004F1030CFF
:1012E000AC453FD253F82C70013700F0B18004F1C7
:1012F000040CAC4536D253F82C70013700F0A880AE
:1013000004F1050CAC452DD253F82C70013700F0D8
:101310009F8004F1060CAC4524D253F82C700137A1
:1013200000F0968004F1070CAC451BD253F82C70EA
:10133000013700F08D8004F1080CAC4512D253F84F
:101340002C70013700F0848004F1090CAC4509D2FF
:1013500053F82C7001377BD00A34AC4202D2DC6ADD
:10136000013409D00420F0BD1D68013574D001247A
:101370000825A0E70820F0BD0B241F1865B243F82C
:1013800024E087F83050002E5ED08A7854071AD4B3
:10139000D60741D41F284A7887BF334E00F01F0478
:1013A00004464FF0A04604F5E074920046F824206D
:1013B0002E4EC40800F0070C375D012202FA0CF231
:1013C0003A4332558A780C7812F0020209D1083D6E
:1013D0002B44104693F8602042EA841483F860405E
:1013E000F0BDAB0003F1804303F5C0430202D3F824
:1013F000101521F44F3121F44071C3F81015240465
:10140000D3F8101504F4403402F47C5222430A430A
:10141000C3F810250020F0BD1F2887BF124A00F036
:101420001F0404464FF0A04202EB8402D2F80047AA
:1014300024F00204C2F80047BAE7082684F83060B6
:10144000C3F820E0354634461C4484F858009CE735
:10145000644692E73C4690E700251A6084F83050D5
:1014600093E700BF9401002000030050F801002022
:1014700070B43A4D2E1883B096F93030072B20DD2A
:101480002B4493F858309B09032B45D0012B14BFF4
:101490004FF440314FF400311F284DD900F01F00A8
:1014A0002F4B03EB8000D0F8002722F44032C0F825
:1014B0000027D0F800370B43C0F8003703B070BCEA
:1014C0007047DAB2072AF9D8980000F1804000F599
:1014D000C04003F14002D0F81045920092B244F0AF
:1014E000010402F18042C0F8104502F5C04200201C
:1014F0000190019C10600029E0D096F9302055F849
:101500002220002ADAD00122164902FA03F3C1F898
:10151000043303B070BC70471F2810D9104BD3F8A8
:10152000103500F01F00C34013F0010F0CBF4FF443
:1015300000314FF44031B3E74FF0A043B1E74FF033
:10154000A0421346D2F81025C24012F0010F14BF7A
:101550004FF440314FF40031A3E700BF9401002065
:1015600000030050006000401F288ABF054B4FF069
:10157000A04300F01F00D3F8103523FA00F000F06C
:1015800001007047000300502DE9F047002388B0A8
:10159000CDE90233CE4A1168012900F03B821E4694
:1015A000CC4B1A68012A00F02782CB4B1A68012A1B
:1015B00000F01482C94B1A68012A00F00182C84B5E
:1015C0001A68012A00F0EE81C64B1A68012A00F061
:1015D000DB81C54B1A68012A00F0C881C34B1A6829
:1015E000012A00F0B581C24B1A68012A0FD10022EE
:1015F0001A601B6801934FF0A042019BD2F810259E
:10160000BC4B0292D3F81035039346F0004616F017
:10161000FF0F1AD0B84F01250024A30003F1804327
:101620002E4203F5C0434FEA45050BD0D3F8100511
:1016300057F82420D3F81015C0F30520C1F3014159
:1016400002B190470134082CE7D1002E02DB08B02C
:10165000BDE8F087A84CA74F4FF0FF33CDE9063324
:1016600094F960300DF1100800225D1CC8F80420C8
:1016700004924FF0010600F0F4805FFA83FC2CF036
:10168000C00008AB4FEAD00903EB090E0CF00703CA
:101690001EF8082C06FA03F312EA030521D02218DB
:1016A0004FEA9C1192F9302054F82220002A00F0D1
:1016B0002981032900F028811F2800F2F9800546BE
:1016C0004FF0A04C0CEB850C1EF8185CDCF800E722
:1016D0001D40CEF3014E40F0DF80BEF1030F00F05D
:1016E000E68194F96130581C32D0DBB223F0C0009F
:1016F00008AA4FEAD00E02EB0E0C03F007011CF80B
:10170000082C06FA01F912EA090F21D022189909CA
:1017100092F9302054F82220002A00F0FB8003299F
:1017200000F0FB801F2800F2E98003464FF0A04E36
:101730000EEB83031CF818ECD3F800C71EEA090F60
:10174000CCF3014C40F0B880BCF1030F00F09B815A
:1017500094F96230591C30D0DBB223F0C00008AAE3
:101760004FEAD00E02EB0E0C03F007011CF8082C18
:1017700006FA01F912EA090F1FD02218990992F905
:10178000302054F82220002A00F0D880032900F0ED
:10179000D8801F287CD803464FF0A04E0EEB830361
:1017A0001CF818ECD3F800C71EEA090FCCF3014C63
:1017B00064D1BCF1030F00F0528194F963305A1CDC
:1017C00034D0DBB223F0C00008AA4FEAD00E02EBFF
:1017D0000E0C03F007021CF8081C06FA02F2114274
:1017E00024D004EB0009990999F9309054F8299014
:1017F000B9F1000F00F09880032900F098801F28AD
:101800008BBFBE464FF0A04E03F01F0303460EEB06
:1018100083031CF818ECD3F800C71EEA020FCCF3C0
:10182000014C20D1BCF1030F00F00081002D3FF4EA
:101830000EAF4FF0A0430299D3F81035D7F810251A
:10184000994203D1039991423FF401AFDDE90401CC
:10185000CDE9023294F960305D1CCDE906017FF4D8
:101860000CAF00253DE7BCF1020FDFD1032900F0EA
:101870003081B9F1000F40F0F080D7E7BCF1020FE2
:101880009BD1032900F02881002A96D0904794E745
:1018900003F01F03BE4681E7BEF1020FE1D1032929
:1018A00000F020810025002A3FF41BAF904718E785
:1018B0000CF01F05BC4605E7BCF1020F7FF448AFF2
:1018C000032900F00C81002A3FF442AF90473FE724
:1018D0000061004004610040086100400C6100406C
:1018E0001061004014610040186100401C6100401C
:1018F0007C610040000300509401002003F01F03AE
:10190000BE4615E70329ACD118F809501D4308F865
:101910000950D1E603297FF41BAF18F80EA04AEA5C
:10192000090A08F80EA0FDE603297FF47FAF18F836
:101930000EA04AEA020A08F80EA060E703297FF425
:101940003CAF18F80EA04AEA090A08F80EA020E7F2
:10195000664AD2F8042317067FF545AE00221A60C6
:101960001B680093009B46F080063CE65F4AD2F875
:10197000042352067FF532AE00221A601B680093E2
:10198000009B46F0400629E6584AD2F80423910607
:101990007FF51FAE00221A601B680093009B46F083
:1019A000200616E6514AD2F80423D0067FF50CAE85
:1019B00000221A601B680093009B46F0100603E6A5
:1019C0004A4AD2F8042314077FF5F9AD00221A60C1
:1019D0001B680093009B46F00806F0E5434AD2F8E6
:1019E000042355077FF5E6AD00221A601B680093BB
:1019F000009B46F00406DDE53C4AD2F80423970735
:101A00007FF5D3AD00221A601B680093009B46F05F
:101A10000206CAE53549D1F8046316F001063FF421
:101A2000BFAD136013680093009BB9E503297FF4F1
:101A300020AF4FF4003CD3F8002722F44032C3F823
:101A40000027D3F80027013542EA0C02EDB2C3F8B3
:101A50000027B9F1000F3FF4ECAEC847E6E60329D2
:101A60007FF412AF4FF4003ED3F800C72CF4403C93
:101A7000C3F800C7D3F800C701354EEA0C0CEDB22D
:101A8000C3F800C700E703297FF41DAF4FF4003E01
:101A9000D3F800C72CF4403CC3F800C7D3F800C704
:101AA00001354EEA0C0CEDB2C3F800C70BE7032971
:101AB0007FF4F9AE4FF40035DCF8003723F44033FF
:101AC000CCF80037DCF800372B43CCF80037012581
:101AD000E9E64FF4403CAEE74FF4403EC4E74FF434
:101AE000403ED5E74FF44035E6E700BF00600040D8
:101AF000F0B40779374D7E00F419A40005EB040C0F
:101B000082B09CF80830002B60D12A514A68CCF88A
:101B10000420427972B19C469A0002F5A0720468D2
:101B200044F802C00133A45842790194DBB29A42CE
:101B3000019CF1D80468CB78240B62B25B01002AC7
:101B4000DBB23DDB02F1604202F5614282F8003314
:101B50000368DFF888C01B0B5CB20122640903F044
:101B60001F0302FA03F34CF82430D0F800C04B787E
:101B7000DCF8044503F0030324F003042343CCF80A
:101B80000435D0F800C08B78DCF8084503F0030377
:101B900024F003042343CCF8083500680B78D0F810
:101BA00010153E4421F00F0103F00F0305EB8605ED
:101BB0000B43C0F8103500202A7202B0F0BC704709
:101BC000054A04F00F0422441376C1E7082002B04E
:101BD000F0BC704700020020FCEC00E000E100E0F7
:101BE0002DE9F041114C124FDFF8488082B00025FA
:101BF0004FF48036236804F5E04006FA05F2002130
:101C0000013580B253B1D7F804331A4206D02160AF
:101C100023680193D8E90031019A9847042D04F113
:101C20000404E7D102B0BDE8F08100BF409100405C
:101C300000900040000200200220FEF7C1BB00BF60
:101C40002DE9F0470D460646FEF7D4FB03281ED8C3
:101C5000012D04461DD00ED3022D18D11B4B00EBD5
:101C600040041C44657895B1194B1B687BB128462C
:101C7000BDE8F04718471748FFF77CF8134B164AA2
:101C800004EB44010B44125D9D78AA42EBD0BDE801
:101C9000F0870E4F4FEA400808EB0003FA18FD5C8E
:101CA00053782BB9A04447440B4BBA781A55DAE75E
:101CB000DFF8289007484A464FF48041FFF70AF8BA
:101CC0000028EFD189F80060ECE700BF7002002027
:101CD00084020020300200208C0200200C02002030
:101CE00010B50078FEF786FB03280BD8064B00EBF7
:101CF00040001844407828B1044B1B6813B1BDE87C
:101D00001040184710BD00BF700200208402002060
:101D1000B44B1B68DB0700D4704770B5B24DB34EAF
:101D20002B7834786BB1B24B1B7800202870002BD5
:101D30004BD0FEF705FB0120FEF702FB0320FEF768
:101D4000FFFA172C40D8DFE814F0B600F400F400D6
:101D5000DC000801CA001301EE00500043005000EF
:101D600043006100180018001800180018006600F1
:101D700077008B009F005D005D009E48FEF7FAFF34
:101D8000D4F11104054600F00081002840F0FD80E8
:101D9000012C13D0C82303FB04F44FF47A704FF4E2
:101DA00000430021C3FB04014FF4FA62002300F05A
:101DB00041FB2A4601468F48FEF78CFF0220FEF7C2
:101DC000ABFA8B4B01221A7070BDFEF7CDFAB8E763
:101DD000012318462B70FEF7F3FA00224FF400514E
:101DE0008548BDE87040FEF775BF012318462B708B
:101DF000FEF7E6FA002240F266617F48BDE87040D7
:101E0000FEF768BFFEF7C6FA347070BDFEF7C2FA7F
:101E10000C23337070BD764B1B78002B00F0BF8015
:101E20000020FEF78DFA0120FEF78AFA0320FEF764
:101E300087FA1223337070BD6D4B1B78002B00F0B6
:101E4000B1800020FEF77CFA0120FEF779FA03202A
:101E5000FEF776FA0020FEF75FFA1323337070BDA9
:101E6000634B1B78002B00F0AD800020FEF768FA72
:101E70000120FEF765FA0320FEF762FA0120FEF763
:101E80004BFA1423337070BD594B1B78002B00F0B4
:101E900083800020FEF754FA0120FEF751FA032058
:101EA000FEF74EFA0020FEF737FA0120FEF734FA6B
:101EB0001523337070BD4E4B1B78002B00F08A80C9
:101EC0000020FEF73DFA0120FEF73AFA0320FEF764
:101ED00037FA4948FEF74EFF0023337070BD0020EB
:101EE000FEF706FA002860D00020FEF729FA052345
:101EF0003370002240F6CD413F48BDE87040FEF708
:101F0000E9BE0020FEF7F4F900285ED00020FEF7BD
:101F100017FA43F233310323337000223648BDE809
:101F20007040FEF7D7BE0020FEF7F6F907233370A6
:101F300070BD0020FEF7DCF9D0B30020FEF700FAF8
:101F4000022C47F2333118BF4FF480313470002235
:101F50002948BDE87040FEF7BDBE0020FEF7C8F975
:101F6000D8B30020FEF7ECF94FF480310423D3E717
:101F70000020FEF725FA06233370002240F2666146
:101F80001D48BDE87040FEF7A5BE0220FEF7D8F957
:101F9000174B00221A7070BDFEF7E6F982E7FEF7D4
:101FA000E3F946E7FEF7E0F954E7FEF7B5F99EE7F7
:101FB000FEF7B2F941F69A1140F6CD43022C08BF64
:101FC0001946C3E7FEF7D0F958E7FEF7A5F940F642
:101FD000CD41A0E7FEF7C8F97BE7FEF79DF941F692
:101FE0009A11C3E77C0200208002002088020020B2
:101FF0000D020020100200205002002038B5244BB2
:10200000244A19608307106000F0010503D4CDB99C
:102010002C46204638BD204B20480E240F2210218C
:102020001C701124DA7099715C7240F23332042111
:10203000FEF79EFB0446B8B115B10120FEF7ECF99E
:10204000204638BD0120FEF7E7F9154A1548002162
:10205000FEF732FE04460028F2D1134A134801214C
:10206000BDE83840FEF728BEFEF7DEFB0446002838
:10207000E2D101460E4A0F48FEF71EFE0446002D2F
:10208000DED00120FEF7C8F9002CD9D1DDE700BF72
:10209000840200207C0200207002002078270000CB
:1020A000111D0000A0270000391C00009827000027
:1020B000E11C00009C270000FEF756B90E3808B559
:1020C000032815D8DFE800F0023624150020FEF7BB
:1020D00023F9244A24480021FEF7EEFD08B1FEF75B
:1020E000B9FB00224FF480412048FEF7F3FD58B9B8
:1020F00008BD0320FEF710F900224FF400311C4800
:10210000FEF7E8FD0028F3D0BDE80840FEF7A2BBCB
:102110000220FEF701F9134A16480021FEF7CCFD14
:10212000E8B900224FF480311348FEF7D3FD0028B0
:10213000EAD108BD0120FEF7EFF80A4A0F48002156
:10214000FEF7BAFD40B900224FF400410C48FEF7FB
:10215000C1FD0028D8D108BDFEF77CFBF3E7FEF7F0
:1021600079FBDEE7B9200000A427000090020020E0
:10217000F0020020AC270000D0020020A8270000B9
:10218000B002002010B507490320FFF737FF0446CF
:102190000120FEF741F904B910BD2046BDE810400A
:1021A000FEF758BBBD20000008B54FF08043012268
:1021B0000021C3F818251846C3F804119A60D0F816
:1021C0000431002BFBD0FEF741FD40B9FEF784FB44
:1021D00040B9FFF7D7FF40BF20BF20BFFBE7FEF7A6
:1021E00039FBF3E7FEF736FBF3E700BF10B44FF01F
:1021F00080414FF080520020C1F80C015E4BC1F8C5
:102200001001C1F83805D2F80414C3F82015D2F82B
:102210000814C3F82415D2F80C14C3F82815D2F802
:102220001014C3F82C15D2F81414C3F83015D2F8D2
:102230001814C3F83415D2F81C14C3F84015D2F89A
:102240002014C3F84415D2F82414C3F84815D2F862
:102250002814C3F84C15D2F82C14C3F85015D2F832
:102260003014C3F85415D2F83414C3F86015D2F8FA
:102270003814C3F86415D2F83C04C3F86805D2F8E2
:1022800040043E49C3F86C050968D2F84424C3F8F9
:102290007025082924D04FF08043D3F80024D207BA
:1022A00044BF6FF00102C3F80024354AD2F88830E9
:1022B00043F47003C2F88830BFF34F8FBFF36F8FC2
:1022C0004FF01023D3F80022002A23DBD3F8043286
:1022D000002B1FDB2B4B2C4A1A605DF8044B704718
:1022E0002A4B1B68002BD6D129482A4A2A4C046065
:1022F0002A492B4BFB20C2F818050A681B6829489D
:1023000022F00F0203F00F0313434FF400720B602F
:102310000260C0E7244B0122C3F80425D3F800244F
:10232000002AFBD04FF0102312221F49C3F80022CD
:10233000D1F80034002BFBD04FF0102212211A4BA1
:10234000C2F80412D3F80024002AFBD00022164958
:10235000C3F80425D1F80034002BFBD0BFF34F8F16
:102360000749124BCA6802F4E0621343CB60BFF323
:102370004F8F00BFFDE700BF00C0004030010010DC
:1023800000ED00E0080000200090D00334010010B0
:102390008C56004000F0004048810300E40E0040ED
:1023A000580200104096024000E001400400FA0587
:1023B00008B5074B044613B10021AFF30080054B6D
:1023C0001868836A03B19847204600F031F800BFCF
:1023D00000000000B027000070B50D4E0D4CA41B8E
:1023E000A4100025A54209D10B4E0C4C00F0A2F917
:1023F000A41BA4100025A54205D170BD56F82530B8
:1024000098470135EEE756F8253098470135F2E751
:102410006C0000206C0000206C0000207000002088
:1024200002440346934200D1704703F8011BF9E7C9
:10243000FEE700BF53B94AB9002908BF00281CBFF6
:102440004FF0FF314FF0FF3000F072B9ADF1080CE2
:102450006DE904CE00F006F8DDF804E0DDE90223C2
:1024600004B070472DE9F047089E04468846002BCB
:102470004BD18A42154667D9B2FA82F24AB1C2F10B
:10248000200701FA02F320FA07F7954047EA03080C
:1024900094404FEA154E230CB8FBFEF71FFA85FC5B
:1024A0000EFB178843EA084307FB0CF1994209D950
:1024B000EB1807F1FF3080F01B81994240F2188140
:1024C000023F2B445B1AA4B2B3FBFEF00EFB1033A9
:1024D00044EA034400FB0CFCA44509D92C1900F183
:1024E000FF3380F00781A44540F2048102382C4478
:1024F00040EA0740A4EB0C0400271EB1D44000239F
:10250000C6E900433946BDE8F0878B4209D9002E61
:1025100000F0EB800027C6E9000138463946BDE8E7
:10252000F087B3FA83F7002F47D18B4202D3824260
:1025300000F2FA80841A61EB030301209846002E12
:10254000E0D0C6E90048DDE702B9FFDEB2FA82F268
:10255000002A40F08F80491B4FEA154E1FFA85F87C
:102560000127B1FBFEFC230C0EFB1C1143EA0143C7
:1025700008FB0CF1994207D9EB180CF1FF3002D29D
:10258000994200F2CD808446591AA3B2B1FBFEF005
:102590000EFB101443EA044408FB00F8A04507D9D9
:1025A0002C1900F1FF3302D2A04500F2B680184684
:1025B000A4EB080440EA0C409FE7C7F1200CBB40A5
:1025C00022FA0CFE4EEA030E01FA07F420FA0CF58B
:1025D00021FA0CF34FEA1E482543B3FBF8F92C0C03
:1025E00008FB19331FFA8EFA44EA034309FB0AF485
:1025F0009C4202FA07F200FA07F10BD91EEB030323
:1026000009F1FF3080F087809C4240F28480A9F17C
:10261000020973441B1BADB2B3FBF8F008FB103387
:1026200045EA034400FB0AFAA24508D91EEB04045C
:1026300000F1FF336BD2A24569D90238744440EAF5
:102640000940A0FB0289A4EB0A044C45C2464B4654
:1026500054D351D0002E69D0B1EB0A0564EB0304CA
:1026600004FA0CFCFD40FC404CEA0505C6E90054A8
:10267000002747E7C2F1200320FA03F7954001FA4B
:1026800002F021FA03F34FEA154E3843010CB3FB75
:10269000FEF71FFA85F80EFB173341EA034107FBEB
:1026A00008F38B4204FA02F407D9691807F1FF3CDA
:1026B0002FD28B422DD9023F2944CB1A81B2B3FBD2
:1026C000FEF00EFB103341EA034100FB08F38B429E
:1026D00007D9691800F1FF3C17D28B4215D902388F
:1026E0002944C91A40EA07473BE73746304609E71D
:1026F0000746E7E61846FBE64145ABD2B8EB020ACF
:1027000069EB0E0201381346A4E76046E9E7184674
:1027100095E76746D1E781467CE702382C4447E7D6
:10272000ACF1020C2B442FE7384608E73746E9E6C0
:10273000704700BFF8B500BFF8BC08BC9E467047A4
:10274000F8B500BFF8BC08BC9E4670470D0E0F10D0
:10275000A0000020009000400004000001000600DE
:1027600000000000F8000020110900000000000037
:102770000338FDD8704700000B000300411C000027
:102780000C000300411C000018000300411C000065
:1027900019000300411C000010020020300200203C
:1027A0005002002090020020B0020020D002002041
:0827B0000C00002000000000F5
:0827B80088DAFF7F0100000038
:1027C00000100140110004000090D0030000000040
:1027D00000000000000000000000000000000000F9
:1027E00000000000000000000000000000000000E9
:1027F00000000000000000000000000000000000D9
:1028000000000000000000000000000000000000C8
:1028100000000000000000000000000000000000B8
:102820000000000000000000000000002502000081
:0428300001020000A1
:04000003000002B542
:00000001FF
